:100000006AC0000046C500007CC5000080C000003A
:100010007EC000007CC000007AC0000078C00000F4
:1000200076C0000074C0000072C0000070C0000004
:100030006EC000006CC0000092C5000068C00000E7
:1000400066C0000064C0000062C0000060C0000024
:100050005EC0000007634236B79BD8A71A396856BE
:1000600018AEBAAB558C1D3CB7CC5763BD6DEDFDDA
:10007000753EF6177231BF000000803F0800000097
:10008000BE922449123EABAAAA2ABECDCCCC4C3E8D
:1000900000000080BEABAAAAAA3E00000000BF007C
:1000A0000000803F0000000000084178D3BB438778
:1000B000D1133D190E3CC3BD4282AD2B3E68EC828C
:1000C00076BED98FE1A93E4C80EFFFBE01C4FF7F11
:1000D0003F000000000011241FBECFE5D4E0DEBFCA
:1000E000CDBF11E0A0E6B0E0ECE4F9E102C005907C
:1000F0000D92AE37B107D9F721E0AEE7B1E001C00C
:100100001D92AC3EB207E1F7DAD30C94A40C78CF81
:100110008093E70180918B01816080938B0108952A
:1001200021E030E002C0220F331F8A95E2F7809170
:100130008B01282B20938B01089521E030E002C031
:10014000220F331F8A95E2F7209580918B01282397
:1001500020938B010895369A08959098089592B34C
:1001600081E0892782BB0895883040F497B1907E62
:1001700097B997B1982B97B98093DE01089580B312
:1001800082FB882780F991E089270895E4DF07C082
:1001900089E698E10197F1F700C00000DCDFEFDFAE
:1001A0008823B1F3089580B383FB882780F991E019
:1001B0008927089580B38295817091E089270895F9
:1001C000AD98AE9888B318BA0895AF9A86E08A952C
:1001D000F1F700C0AF980895AD9AAE9888BBF5DFEF
:1001E00080E18A95F1F700C008951F93CF93DF93C4
:1001F000EC0110EC89918C3341F4AD98AE9818BBAA
:10020000E4DF84E18A95F1F704C0082E000C990B15
:10021000E3DF88818111EECFDF91CF911F910895A7
:10022000AD98AE9881E088BBD0DF83EF91E0019775
:10023000F1F700C000000895C3DFAD98AE9880E3E9
:1002400088BBC3DF81EE94E00197F1F700C00000A6
:10025000BCDF89EF90E00197F1F700C00000B5DF47
:1002600083EF91E00197F1F700C00000A9DFAD989E
:10027000AE9888E388BBA9DF90E19A95F1F700C0BA
:10028000AD98AE988FE088BBA0DF80E18A95F1F74A
:1002900000C0AD98AE9881E088BB97DF83EF91E016
:1002A0000197F1F700C00000AD98AE9886E088BBDA
:1002B0008CDF83ED90E30197F1F700C00000089513
:1002C000AF92BF92CF92DF92EF92FF920F931F9364
:1002D000CF93DF9300D000D0CDB7DEB7A1DF85E6A6
:1002E00090E083DF2FE78AE196E021508040904044
:1002F000E1F700C0000094DF8DE790E076DF8091A9
:100300008D0124E6829FC00111246FEF70E0DBD7DE
:100310007F936F938FE890E09F938F938E010F5F91
:100320001F4F1F930F930E94AC09C8015EDF82E943
:1003300090E05BDF0F900F900F900F900F900F9059
:1003400032DF8111FDCF0F2EF4E6BF2EF02DCC242D
:10035000CA94D12C0F2EFFE8EF2EF0E0FF2EF02DE7
:100360008E010F5F1F4FAA24AA941DDF8823A9F1D5
:1003700021DF811132C080918D01873E28F4875E94
:1003800080938D0183BD03C0A0928D01A3BC48DF83
:100390008DE790E02ADF80918D01B89EC001112485
:1003A000B60191D77F936F93FF92EF921F930F93B4
:1003B000D3D7C8011ADF82E990E017DF8FE798E30F
:1003C00021E0815090402040E1F700C000000F90F4
:1003D0000F900F900F900F900F90ECDE8823A9F1F3
:1003E000E2DE811132C080918D01893128F089517E
:1003F00080938D0183BD03C010928D0113BC10DF6B
:100400008DE790E0F2DE80918D01B89EC00111244D
:10041000B60159D77F936F93FF92EF921F930F937B
:100420009BD7C801E2DE82E990E0DFDE8FE798E348
:1004300021E0815090402040E1F700C000000F9083
:100440000F900F900F900F900F9099DE882309F472
:100450008CCFE6DE84E990E0C8DEE199FECF6091C2
:100460008D0180E090E00E94480C8FED93E924E03C
:10047000815090402040E1F700C000000F900F90A5
:100480000F900F90DF91CF911F910F91FF90EF9000
:10049000DF90CF90BF90AF900895C2DE8DEA90E0DC
:1004A000A4DE74DE6091630070916400072E000C7E
:1004B000880B990BB4D4AB01BC014093DF0150937E
:1004C000E0016093E1017093E201E199FECF89E0E0
:1004D00090E00E94550C83E294EF0197F1F700C081
:1004E000000006C08FE493EC0197F1F700C0000014
:1004F00046DE8111F7CF94DE89EC90E076DE46DEB1
:100500006091630070916400072E000C880B990BBA
:1005100086D4AB01BC014093E3015093E4016093A6
:10052000E5017093E601E199FECF85E090E00E943D
:10053000550C2091E3013091E4014091E501509187
:10054000E6016091DF017091E0018091E1019091FD
:10055000E20165D320E030E048E452E4C5D3AB01CA
:10056000BC014093E8015093E9016093EA01709364
:10057000EB01E199FECF81E090E00E94550C50DE46
:1005800084EE90E032DE9FED23E984E0915020403C
:100590008040E1F700C000000895CF92DF92EF9213
:1005A000FF9260916300709164008091610090916E
:1005B00062008617970709F45CC0072E000C880BB1
:1005C000990B2DD42091DF013091E0014091E101A0
:1005D0005091E20124D32091E8013091E90140914A
:1005E000EA015091EB0180D36B017C01609387019C
:1005F000709388018093890190938A0120E030E014
:1006000040E251E471D320E030E040E450E407D30D
:100610009B01AC0160E070E080E291E4EFD420E067
:1006200030E04AE754E487D46093830170938401F7
:10063000809385019093860120E030E040E752E40A
:10064000C701B601EDD220E030E040EA51E44CD3DE
:100650009B01AC0160E070E080E291E4CFD4609354
:100660007F0170938001809381019093820182E0E9
:1006700057DDFF90EF90DF90CF900895CF92DF92FB
:10068000EF92FF921F93CF93DF93CDB7DEB76497BE
:100690000FB6F894DEBF0FBECDBF6B017C0191D3C6
:1006A0007F936F938FE890E09F938F93CE01019695
:1006B0009F938F9351D620E030E048EC52E4C7017D
:1006C000B60139D47ED324E630E040E050E00ED6C7
:1006D0007F936F938EEF90E09F938F93CE010B9655
:1006E0009F938F9339D60FB6F894DEBF0FBECDBF60
:1006F00010E0E1E0F0E0EC0FFD1FE10FF11D808163
:10070000082E000C990B68DD1F5FE1E0F0E0EC0FB4
:10071000FD1FE10FF11D80818111EBCF8EE290E092
:100720005BDD10E0EBE0F0E0EC0FFD1FE10FF11DF1
:100730008081082E000C990B4FDD1F5FEBE0F0E08D
:10074000EC0FFD1FE10FF11D80818111EBCF64964D
:100750000FB6F894DEBF0FBECDBFDF91CF911F91D2
:10076000FF90EF90DF90CF9008958F929F92AF927D
:10077000BF92EF92FF920F931F93CF93DF9300D01E
:1007800000D000D0CDB7DEB780918B0182FF86C04C
:100790000EE811E00F2EFEEDEF2EF1E0FF2EF02D12
:1007A000812C912C5401F801819191918F01BC0110
:1007B00080E090E032D39B01AC01C501B40130D29E
:1007C0004B015C010E151F0571F78091E70188232D
:1007D00021F0813009F445C05DC08091600088231C
:1007E00049F020E030E040E252E4C501B4017CD29F
:1007F000E3D204C060916300709164007F936F93B3
:100800008FE890E09F938F938E010F5F1F4F1F9390
:100810000F93A2D505DD0F900F900F900F900F90C2
:100820000F90F80181918F01082E000C990BD4DCF8
:10083000F80180818111F5CF83E091E0D6DC8091D1
:100840006000811104C08FE091E0CFDC23C0809173
:100850007E018823F9F088E191E0C7DC10927E01E7
:1008600019C0DEDC83E291E0C0DC6091DF017091B1
:10087000E0018091E1019091E20100DF8AE291E0E4
:10088000B4DC6091E3017091E4018091E501909105
:10089000E601F4DE82E051DC80E04FDC26960FB604
:1008A000F894DEBF0FBECDBFDF91CF911F910F91A6
:1008B000FF90EF90BF90AF909F908F90089584B776
:1008C000806884BF84B7806884BF6E981ABA1BBAE8
:1008D0008FEF87BB80EE84BB8FE185BB81E881BB56
:1008E000909A8A98929A8B98939A8C98949A80EC82
:1008F00087B98FE886B98CE685BDE199FECF80E0A7
:1009000090E0B9D780938D0183BD89E090E0BBD79B
:100910006093DF017093E0018093E1019093E20125
:1009200085E090E0B0D76093E3017093E401809399
:10093000E5019093E60181E090E0A5D76093E8019E
:100940007093E9018093EA019093EB0180E0E0DB92
:1009500080E00ADC85B7826085BF85B78E7F85BF62
:1009600080E48BBF85B7886085BF85B78B7F85BFE7
:1009700080E88BBF7894EFDB5FDC83E491E035DCCB
:1009800081EE90E029DC82E591E02FDCC8E2D0E046
:1009900081E294E20197F1F700C00000DCDB2197CF
:1009A000B9F73EDCECDB81110DC010C09FE52AEEEB
:1009B00080E0915020408040E1F700C000008FE5CA
:1009C00091E013DCDCDB8111F1CF67DDECDB811121
:1009D00077DC8BB780648BBF8BB780688BBFBDDB48
:1009E000DCDDC3DEBCDBC1E0D0E011E00EC09091E5
:1009F0008B0191FF07C09091600091279093600058
:100A0000812F9BDBCADDB1DECD2F9091E7019111E3
:100A1000D1DBD0DB882311F184E082DB9BB79F7BA5
:100A20009BBF9BB79F779BBFBEDB882311F048DC41
:100A300015C0A5DB81110EC011C09FE52AEE80E034
:100A4000915020408040E1F700C00000E9DB8FE5D5
:100A500091E0CBDB94DB8111F0CF1FDD90918B0116
:100A600094FF0BC0A7DB811108C09BB790649BBFAC
:100A70009BB790689BBF84E060DB6DDB89E698E103
:100A80000197F1F700C00000CF5FCA3009F0BDCF79
:100A9000AECF1F920F920FB60F9211242F933F9358
:100AA0004F935F936F937F938F939F93AF93BF9376
:100AB000EF93FF9380918B0180FD0CC08091E70143
:100AC000882319F0813021F005C081E021DB02C0CC
:100AD00080E01EDB89EF90E00197F1F700C0000095
:100AE000FF91EF91BF91AF919F918F917F916F9106
:100AF0005F914F913F912F910F900FBE0F901F90DC
:100B000018951F920F920FB60F9211242F933F93B7
:100B10004F935F936F937F938F939F93AF93BF9305
:100B2000EF93FF9380918B0181FD02C081E0F8DAA1
:100B300089EF90E00197F1F700C00000FF91EF917D
:100B4000BF91AF919F918F917F916F915F914F91E5
:100B50003F912F910F900FBE0F901F9018951F92ED
:100B60000F920FB60F9211242F933F934F935F93E1
:100B70006F937F938F939F93EF93FF9324B185B1EE
:100B80009091DE0191113CC090E0982F8827820F50
:100B9000911D2091630030916400820F931F99236F
:100BA0000CF401969595879590936400809363006B
:100BB00020918C01283210F010928C0140918C0110
:100BC000242F30E0F901EE0FFF1FE257FE4F608146
:100BD0007181FC01B8976E177F0728F0E05BFF4F2B
:100BE000E617F70718F451E050937E01220F331FE8
:100BF000F901E257FE4F918380834F5F40938C0150
:100C0000FF91EF919F918F917F916F915F914F91A4
:100C10003F912F910F900FBE0F901F901895505835
:100C2000BB27AA270ED04DC13ED130F043D120F0D2
:100C300031F49F3F11F41EF433C10EF4E095E7FB4D
:100C400029C1E92F4FD180F3BA17620773078407D0
:100C5000950718F071F49EF567C10EF4E0950B2E20
:100C6000BA2FA02D0B01B90190010C01CA01A001FE
:100C70001124FF27591B99F0593F50F4503E68F159
:100C80001A16F040A22F232F342F4427585FF3CF9A
:100C9000469537952795A795F0405395C9F77EF46B
:100CA0001F16BA0B620B730B840BBAF09150A1F0B4
:100CB000FF0FBB1F661F771F881FC2F70EC0BA0F3A
:100CC000621F731F841F48F4879577956795B795C2
:100CD000F7959E3F08F0B3CF9395880F08F09927BA
:100CE000EE0F9795879508950CD0EBC0E3D040F0B8
:100CF000DAD030F021F45F3F19F0CCC0511115C1AA
:100D0000CFC0F0D098F39923C9F35523B1F3951BC5
:100D1000550BBB27AA2762177307840738F09F5F1C
:100D20005F4F220F331F441FAA1FA9F333D00E2E8B
:100D30003AF0E0E830D091505040E695001CCAF7F8
:100D400029D0FE2F27D0660F771F881FBB1F2617BD
:100D500037074807AB07B0E809F0BB0B802DBF0190
:100D6000FF2793585F4F2AF09E3F510568F092C0CD
:100D7000DCC05F3FECF3983EDCF386957795679592
:100D8000B795F7959F5FC9F7880F911D9695879541
:100D900097F90895E1E0660F771F881FBB1F621760
:100DA00073078407BA0720F0621B730B840BBA0B1E
:100DB000EE1F88F7E095089504D06894B111B5C08E
:100DC000089598D088F09F5790F0B92F9927B75180
:100DD000A0F0D1F0660F771F881F991F1AF0BA95FF
:100DE000C9F712C0B13081F09FD0B1E008959CC026
:100DF000672F782F8827B85F39F0B93FCCF38695F5
:100E000077956795B395D9F73EF490958095709551
:100E100061957F4F8F4F9F4F0895E89409C097FBCE
:100E20003EF490958095709561957F4F8F4F9F4FC1
:100E30009923A9F0F92F96E9BB279395F695879505
:100E400077956795B795F111F8CFFAF4BB0F11F4C8
:100E500060FF1BC06F5F7F4F8F4F9F4F16C088236F
:100E600011F096E911C0772321F09EE8872F762FA5
:100E700005C0662371F096E8862F70E060E02AF0E6
:100E80009A95660F771F881FDAF7880F96958795D2
:100E900097F9089597F99F6780E870E060E00895FA
:100EA0009FEF80EC089500240A9416161706180682
:100EB0000906089500240A9412161306140605065E
:100EC0000895092E0394000C11F4882352F0BB0FEF
:100ED00040F4BF2B11F460FF04C06F5F7F4F8F4F52
:100EE0009F4F089557FD9058440F551F59F05F3F8D
:100EF00071F04795880F97FB991F61F09F3F79F03C
:100F000087950895121613061406551FF2CF4695BD
:100F1000F1DF08C0161617061806991FF1CF86953F
:100F20007105610508940895E894BB276627772723
:100F3000CB0197F908950BD0C4CFB5DF28F0BADF05
:100F400018F0952309F0A6CFABCF1124EECFCADF5E
:100F5000A0F3959FD1F3950F50E0551F629FF001CC
:100F6000729FBB27F00DB11D639FAA27F00DB11D25
:100F7000AA1F649F6627B00DA11D661F829F2227AE
:100F8000B00DA11D621F739FB00DA11D621F839F35
:100F9000A00D611D221F749F3327A00D611D231F0B
:100FA000849F600D211D822F762F6A2F11249F5759
:100FB00050408AF0E1F088234AF0EE0FFF1FBB1F7C
:100FC000661F771F881F91505040A9F79E3F51051B
:100FD00070F060CFAACF5F3FECF3983EDCF38695CC
:100FE00077956795B795F795E7959F5FC1F7FE2BC6
:100FF000880F911D9695879597F90895FA01EE0F40
:10100000FF1F30962105310599F16115710561F4D5
:101010008038BFE39B0749F168949038810561F0FF
:101020008038BFEF9B0741F0992342F5FF3FE10570
:101030003105210511F1E8940894E795D901AA2317
:1010400029F4AB2FBE2FF85FD0F310C0FF5F70F410
:10105000A695E0F7F73950F019F0FF3A38F49F778A
:101060009F930CD00F9007FC905808953EF018CF36
:1010700060E070E080E89FE308954FE79F775F931B
:101080004F933F932F939ED02F913F914F915F911C
:1010900052DF05C019F40EF0FDCE46CF01CF2ADF96
:1010A000C8F39638C0F707F80F92E8942BE33AEAB2
:1010B00048EB5FE74EDF0F920F920F924DB75EB78E
:1010C0000F92C0D0E4E5F0E016D04F915F91EF9120
:1010D000FF91E595EE1FFF1F49F0FE57E06844279A
:1010E000EE0F441FFA95E1F74195550B32D00F9062
:1010F00007FE26C00895DF93CF931F930F93FF92AF
:10110000EF92DF927B018C01689405C0DA2EEF012B
:101110001EDFFE01E894A5912591359145915591E9
:10112000AEF3EF018EDDFE019701A801DA9479F7A5
:10113000DF90EF90FF900F911F91CF91DF91089575
:101140009B01AC0160E070E080E89FE3CDCDA2CED2
:10115000ACC0D0DEE8F39923D9F3940F511DBBF353
:101160009150504094F059F0882332F0660F771F69
:10117000881F91505040C1F79E3F510544F7880F9A
:10118000911D9695879597F908955F3FACF0983E2D
:101190009CF0BB27869577956795B79508F4B16065
:1011A0009395C1F7BB0F58F711F460FFE8CF6F5F5D
:1011B0007F4F8F4F9F4FE3CFB8CE0EF076C070CEEB
:1011C000689468CE97DEC8F39923D1F3C6F3DF9312
:1011D000CF931F930F93FF92C92FDD2788232AF007
:1011E0002197660F771F881FDAF720E030E040E88C
:1011F0005FEB9FE3883920F0803E30F021968F77B7
:101200000FDDECE7F0E003C00BDDE9EAF0E073DFAF
:101210008B01BE01EC01FB2E6F5771097595771F8D
:10122000880B990BFCDD28E132E741E35FE38FDEB9
:10123000AF2D9801AE01FF900F911F91CF91DF91DB
:1012400000DD3FCEFA01DC01AA0FBB1F9B01AC0100
:10125000BF5728F422273327442750781FC0B7519F
:1012600088F4AB2F0024469537952795011CA3954C
:10127000D2F3002069F0220F331F441FB395DAF335
:101280000DD0CDCC61307105A0E88A07B94630F4A5
:101290009B01AC016627772788279078309621F04C
:1012A000208331834283538308959F3F31F09150CF
:1012B00020F4879577956795B795880F911D96953A
:1012C000879597F9089597FB072E16F4009406D09A
:1012D00077FD08D02DD007FC05D03EF49095819580
:1012E0009F4F0895709561957F4F0895A1E21A2E42
:1012F000AA1BBB1BFD010DC0AA1FBB1FEE1FFF1FBA
:10130000A217B307E407F50720F0A21BB30BE40B09
:10131000F50B661F771F881F991F1A9469F7609550
:101320007095809590959B01AC01BD01CF0108950A
:10133000AA1BBB1B51E107C0AA1FBB1FA617B707FB
:1013400010F0A61BB70B881F991F5A95A9F7809517
:101350009095BC01CD010895AEE0B0E0E1EBF9E07D
:10136000CAC20D891E8986E08C831A8309838FEF98
:101370009FE79E838D83AE01475E5F4F6F89788DB7
:10138000CE01019609D02F813885F801E20FF31FB5
:1013900010822E96E4E0CBC2ACE0B0E0E1EDF9E0E3
:1013A0009CC27C016B018A01FC0117821682838139
:1013B00081FFB0C1CE0101964C01F7019381F60186
:1013C00093FD859193FF81916F01882309F49EC15C
:1013D000853239F493FD859193FF81916F018532B8
:1013E00021F4B70190E0B1D1E8CF512C312C20E0AD
:1013F0002032A0F48B3269F030F4803259F083321D
:1014000069F420612CC08D3239F0803339F42160C9
:1014100026C02260246023C0286021C027FD27C089
:1014200030ED380F3A3078F426FF06C0FAE05F9EC0
:10143000300D1124532E13C08AE0389E300D112434
:10144000332E20620CC08E3221F426FD5FC1206451
:1014500006C08C3611F4206802C0883641F4F601CB
:1014600093FD859193FF81916F018111C1CF982FD9
:101470009F7D9554933028F40C5F1F4FFFE3F98351
:101480000DC0833631F0833771F0833509F057C0D2
:1014900021C0F801808189830E5F1F4F442443944B
:1014A000512C540114C03801F2E06F0E711CF80188
:1014B000A080B18026FF03C0652D70E002C06FEFF1
:1014C0007FEFC5012C8736D12C0183012C852F7726
:1014D000222E16C03801F2E06F0E711CF801A080B8
:1014E000B18026FF03C0652D70E002C06FEF7FEF73
:1014F000C5012C8714D12C012C852068222E830154
:1015000023FC19C0832D90E048165906A0F4B701BA
:1015100080E290E01AD13A94F5CFF50127FC85914D
:1015200027FE81915F01B70190E00FD131103A940D
:10153000F1E04F1A51084114510479F7DEC08436A6
:1015400011F0893631F5F80127FF07C060817181FC
:10155000828193810C5F1F4F08C060817181072ECB
:10156000000C880B990B0E5F1F4F2F76722E97FF82
:1015700009C090958095709561957F4F8F4F9F4FD3
:101580002068722E2AE030E0A40117D1A82EA818F6
:1015900043C0853729F42F7EB22E2AE030E025C0E3
:1015A000F22FF97FBF2E8F36C1F018F4883579F00D
:1015B000ADC0803719F0883721F0A8C02F2F2061E7
:1015C000B22EB4FE0DC08B2D8460B82E09C024FF4E
:1015D0000AC09F2F9660B92E06C028E030E005C0F3
:1015E00020E130E002C020E132E0F801B7FE07C0A0
:1015F00060817181828193810C5F1F4F06C0608181
:10160000718180E090E00E5F1F4FA401D6D0A82E1C
:10161000A818FB2DFF777F2E76FE0BC0372D3E7F5F
:10162000A51450F474FE0AC072FC08C0372D3E7E2B
:1016300005C0BA2C372D03C0BA2C01C0B52C34FF1D
:101640000DC0FE01EA0DF11D8081803311F4397E59
:1016500009C032FF06C0B394B39404C0832F8678C8
:1016600009F0B39433FD12C030FF06C05A2CB314F6
:1016700018F4530C5B18B32CB31460F4B70180E278
:1016800090E03C8762D0B3943C85F6CFB31410F45D
:101690003B1801C0312C34FF11C0B70180E390E04A
:1016A0003C8753D03C8532FF16C031FD03C088E72C
:1016B00090E002C088E590E0B7010CC0832F8678E7
:1016C00051F031FF02C08BE201C080E237FD8DE2B4
:1016D000B70190E03AD0A51430F4B70180E390E070
:1016E00034D05A94F8CFAA94F401EA0DF11D808108
:1016F000B70190E02AD0A110F6CF332009F45DCED7
:10170000B70180E290E021D03A94F7CFF7018681CB
:10171000978102C08FEF9FEF2C96E2E1FAC0FC01A7
:101720000590615070400110D8F7809590958E0F0C
:101730009F1F0895FC016150704001900110D8F77F
:10174000809590958E0F9F1F08950F931F93CF93B1
:10175000DF93FB01238121FD03C08FEF9FEF28C0A2
:1017600022FF16C0468157812481358142175307D5
:1017700044F4A081B1819D012F5F3F4F31832083CD
:101780008C93268137812F5F3F4F3783268310C08C
:10179000EB01092F182F0084F185E02D0995892B85
:1017A000E1F68E819F8101969F838E83812F902FFA
:1017B000DF91CF911F910F910895FA01AA27283048
:1017C00051F1203181F1E8946F936E7F6E5F7F4F0E
:1017D0008F4F9F4FAF4FB1E03ED0B4E03CD0670F8A
:1017E000781F891F9A1FA11D680F791F8A1F911DDD
:1017F000A11D6A0F711D811D911DA11D20D009F42D
:1018000068943F912AE0269F11243019305D31936E
:10181000DEF6CF010895462F4770405D4193B3E057
:101820000FD0C9F7F6CF462F4F70405D4A3318F0FE
:10183000495D31FD4052419302D0A9F7EACFB4E0AF
:10184000A6959795879577956795BA95C9F7009767
:101850006105710508959B01AC010A2E0694579508
:10186000479537952795BA95C9F7620F731F841F5F
:10187000951FA01D0895E199FECF9FBB8EBBE09AF6
:1018800099278DB30895A6E1B0E044E050E017C079
:10189000262FE199FECF9FBB8EBB2DBB0FB6F894D0
:1018A000E29AE19A0FBE01960895242FF2DF252FC8
:1018B000F0DF00C0EDDF272FECCFDC01CB01FC0116
:1018C000E199FECF06C0FFBBEEBBE09A31960DB2A8
:1018D0000D9241505040B8F708952F923F924F9289
:1018E0005F926F927F928F929F92AF92BF92CF92B0
:1018F000DF92EF92FF920F931F93CF93DF93CDB7B9
:10190000DEB7CA1BDB0B0FB6F894DEBF0FBECDBF30
:1019100009942A88398848885F846E847D848C8401
:101920009B84AA84B984C884DF80EE80FD800C810A
:101930001B81AA81B981CE0FD11D0FB6F894DEBFED
:0C1940000FBECDBFED010895F894FFCF5D
:10194C00010A000A0042656C6575636874756E6700
:10195C003C65696E7374656C6C656E3A0055702FDE
:10196C00446F776E2020204D46543D4F4B3C002554
:10197C006400250042656C6575636874756E673C20
:10198C0065696E67657374656C6C7421002D302EFF
:10199C003164426D20616E6C6567656E3C4D4654DA
:1019AC00206472DC636B656E002D353064426D20F3
:1019BC00616E6C6567656E3C4D4654206472DC63E9
:1019CC006B656E004B616C696272696572756E67EE
:1019DC003C6572666F6C67726569636821002530BF
:1019EC0032640020414443204C6F67416D70003CD1
:1019FC006E6963687420F8003C726563686E652ECE
:101A0C002E2E003064623A2020003C353064623A5D
:101A1C002000426174746572696520736368776134
:101A2C00636800482D46656C642D4D65737367655E
:101A3C007200743C20202020202056322E30004B87
:101A4C00616C696272696572756E673A3C54617358
:0E1A5C007465206C6F736C617373656E21008E
:00000001FF
