:100000006AC0000099C50000D1C5000080C0000092
:100010007EC000007CC000007AC0000078C00000F4
:1000200076C0000074C0000072C0000070C0000004
:100030006EC000006CC00000DDC5000068C000009C
:1000400066C0000064C0000062C0000060C0000024
:100050005EC0000007634236B79BD8A71A396856BE
:1000600018AEBAAB558C1D3CB7CC5763BD6DEDFDDA
:10007000753EF6177231BF000000803F0800000097
:10008000BE922449123EABAAAA2ABECDCCCC4C3E8D
:1000900000000080BEABAAAAAA3E00000000BF007C
:1000A0000000803F0000000000084178D3BB438778
:1000B000D1133D190E3CC3BD4282AD2B3E68EC828C
:1000C00076BED98FE1A93E4C80EFFFBE01C4FF7F11
:1000D0003F000000000011241FBECFE5D4E0DEBFCA
:1000E000CDBF11E0A0E6B0E0E2EEF9E102C005907C
:1000F0000D92AA37B107D9F721E0AAE7B1E001C014
:100100001D92AA3BB207E1F7E3D30C94EF0C78CF32
:10011000AD98AE9888B318BA08958F92AF92CF92E7
:10012000EF920F93CF93DF93CDB7DEB7882311F013
:10013000AD9A01C0AD98662311F0AE9A01C0AE9899
:10014000442311F0C79A01C0C798222311F0C69A20
:1001500001C0C698002311F0C59A01C0C598EE20D1
:1001600011F0C49A01C0C498CC2011F0C39A01C008
:10017000C398AA2011F0C29A01C0C298882011F039
:10018000C19A01C0C1988A85882311F0C09A01C024
:10019000C098DF91CF910F91EF90CF90AF908F905B
:1001A0000895AF9A86E08A95F1F700C0AF98089558
:1001B000AD9AAE9888BBF5DF80E18A95F1F700C073
:1001C00008958F92AF92CF92EF920F93CF93DF93D8
:1001D000EC0189918C3389F41F92812CA12CC12CC4
:1001E000E12C00E021E041E060E080E096DFD9DF33
:1001F00084E18A95F1F70F9004C0082E000C990B4A
:10020000D7DF88818111E5CFDF91CF910F91EF90FA
:10021000CF90AF908F9008958F92AF92CF92EF9240
:100220000F9381E08F93812CA12CC12CE12C00E055
:1002300020E040E060E080E070DFB3DF83EF91E03A
:100240000197F1F700C000000F900F91EF90CF9051
:10025000AF908F9008958093B50180918501816062
:1002600080938501089521E030E002C0220F331F02
:100270008A95E2F780918501282B209385010895C6
:1002800021E030E002C0220F331F8A95E2F720956B
:10029000809185012823209385010895369A089539
:1002A0009098089592B381E0892782BB08958830A1
:1002B00040F497B1907E97B997B1982B97B98093F6
:1002C000B001089580B38695869591E08927817065
:1002D00090E00895F7DF892BE9F3089580B383FB5D
:1002E000882780F991E08927089580B382958170ED
:1002F00091E0892708952F923F924F925F926F92DB
:100300007F928F92AF92CF92EF92FF920F931F93B3
:10031000CF93DF9300D000D0CDB7DEB77DDF85E689
:1003200090E04FDF2FE78AE196E021508040904037
:10033000E1F700C0000070DF8DE790E042DF8091C0
:10034000870124E6829FC00111246FEF70E00E94B4
:10035000AE097F936F938FE890E09F938F938E0108
:100360000F5F1F4F1F930F930E94F709C80129DFEA
:1003700082E990E026DF0F900F900F900F900F9082
:100380000F90ACDF8111FDCF14E622242A94312C8A
:100390000F2EFFE84F2EF0E05F2EF02DCE010196DC
:1003A0003C01FF24FA949ADF882309F444C09DDFBE
:1003B000811141C080918701873E28F4875E809338
:1003C000870183BD03C0F0928701F3BC1F92812C8B
:1003D000A12CC12CE12C01E021E040E060E080E0B4
:1003E0009CDEDFDE90E19A95F1F700C015DF8DE726
:1003F00090E0E7DE80918701189FC0011124B101D0
:10040000ADD77F936F935F924F927F926F92EFD7AA
:10041000C301D7DE82E990E0D4DE2FE788E391E0E4
:10042000215080409040E1F700C000000FB6F894E2
:10043000DEBF0FBECDBF59DF882309F444C04EDFB5
:10044000811141C080918701893128F089518093C1
:10045000870183BD03C01092870113BC1F92812CBA
:10046000A12CC12CE12C01E021E040E060E080E023
:1004700054DE97DE90E19A95F1F700C0CDDE8DE76E
:1004800090E09FDE80918701189FC0011124B10187
:1004900065D77F936F935F924F927F926F92A7D7AA
:1004A000C3018FDE82E990E08CDE2FE788E391E0E4
:1004B000215080409040E1F700C000000FB6F89452
:1004C000DEBF0FBECDBFFEDE892B09F46CCFA4DEEC
:1004D00084E990E076DEE199FECF6091870180E0CB
:1004E00090E00E94930C9FED23E984E0915020401E
:1004F0008040E1F700C000000F900F900F900F9028
:10050000DF91CF911F910F91FF90EF90CF90AF901F
:100510008F907F906F905F904F903F902F900895B5
:100520007BDE8DEA90E04DDED5DE60916300709158
:100530006400072E000C880B990BBCD4AB01BC01E6
:100540004093B1015093B2016093B3017093B40131
:10055000E199FECF85E090E00E94A00C83E294EF49
:100560000197F1F700C0000006C08FE493EC0197FB
:10057000F1F700C00000A6DE892BB9F74DDE89EC4B
:1005800090E01FDEA7DE6091630070916400072E8B
:10059000000C880B990B8ED49B01AC016091B101CA
:1005A0007091B2018091B3019091B40183D320E0A6
:1005B00030E048E452E4E3D3AB01BC014093B60120
:1005C0005093B7016093B8017093B901E199FECFE0
:1005D00081E090E00E94A00C1FDE84EE90E0F1DD4F
:1005E0009FED23E984E0915020408040E1F700C076
:1005F00000000895CF92DF92EF92FF926091630026
:100600007091640080916100909162008617970755
:1006100009F458C0072E000C880B990B4BD420917D
:10062000B1013091B2014091B3015091B40142D374
:100630002091B6013091B7014091B8015091B901B4
:100640009ED305D46B017C01709384016093830178
:10065000CB016AE070E082D663507109072E000C6E
:10066000880B990B27D49B01AC0160E070E080E21D
:1006700091E40FD520E030E04AE754E4A7D460933A
:100680007F01709380018093810190938201C60164
:10069000CC9664E170E062D6072E000C880B990BB3
:1006A00009D49B01AC0160E070E080E291E4F1D4F8
:1006B00060937B0170937C0180937D0190937E0118
:1006C00082E0D1DDFF90EF90DF90CF9008958F9280
:1006D0009F92AF92BF92CF92DF92EF92FF920F93D1
:1006E0001F93CF93DF93CDB7DEB728970FB6F8945B
:1006F000DEBF0FBECDBF8091850182FFD6C0809145
:10070000B501882321F0813009F45BC0CAC0809113
:10071000830190918401E8E8F1E040EB51E0219100
:100720003191820F931FE417F507C9F764E170E078
:1007300015D67093840160938301809160008111CC
:1007400008C080916300909164009093840180932D
:100750008301809184018F93809183018F938FE82F
:1007600090E09F938F938E010F5F1F4F1F930F9306
:100770003ED652DD0F900F900F900F900F900F907C
:10078000F80181918F01082E000C990B11DDF80101
:1007900080818111F5CF8EEF90E013DD80916000B4
:1007A000811104C08AE091E00CDD7BC080917A0168
:1007B000882309F476C083E191E003DD10927A0189
:1007C00070C010927B0110927C0110927D011092FA
:1007D0007E0122DD8EE191E0F4DC60916300709196
:1007E0006400072E000C880B990B64D32AE037EDC8
:1007F00043E25BE3EBD34B015C0120E030E048ECEB
:1008000052E4E4D329D324E630E040E050E0B9D507
:10081000D62EC72E862F9C2D7C01C501B4011CD37A
:100820007F936F930FE810E01F930F93CE01019613
:100830009F938F93DCD5CF92DF921F930F93CE01BE
:1008400007969F938F93D3D50FB6F894DEBF0FBE54
:10085000CDBF9AE0E916F10420F48F8190E39F83E5
:1008600088878E010F5F1F4FF80181918F01082E3D
:10087000000C990B9DDCF80180818111F5CF8EE28F
:1008800090E096DC8F81082E000C990B91DC888516
:10089000882321F0082E000C990B8ADC8BE291E072
:1008A00090DC82E0EDDC80E0EBDC28960FB6F8947B
:1008B000DEBF0FBECDBFDF91CF911F910F91FF9093
:1008C000EF90DF90CF90BF90AF909F908F90089562
:1008D00084B7806884BF84B7806884BF6E981ABA72
:1008E0001BBA8FEF87BB80EE84BB8FE185BB81E8AD
:1008F00081BB909A8A98929A8B98939A8C98949AA2
:1009000080EC87B98FE886B982E0D1DC8CE685BDC2
:10091000E199FECF80E090E0F9D78093870183BD15
:1009200085E090E0FBD76093B1017093B2018093B2
:10093000B3019093B40181E090E0F0D76093B601E9
:100940007093B7018093B8019093B90180E083DC84
:1009500080E0ADDC80E88BBF88E085BF80E48BBFA2
:1009600082E085BF78949ADCD3DB1F92812CA12C86
:10097000C12CEE24E39401E020E040E060E080E060
:10098000CCDB0FDC81EE94E00197F1F700C00000B2
:1009900008DC89EF90E00197F1F700C0000001DC6E
:1009A00083EF91E00197F1F700C00000B1DB1F92E7
:1009B000CC24C39420E040E060E080E0AEDBF1DBDB
:1009C00090E19A95F1F700C0C1E0CF938824839419
:1009D000AA24A394E12C00E020E040E060E080E065
:1009E0009CDBDFDB20E12A95F1F700C0CF93812C5F
:1009F000A12CC12C20E040E060E080E08EDBD1DB68
:100A000083EF91E00197F1F700C000001F92882466
:100A10008394AA24A39420E040E060E080E07DDBA2
:100A2000C0DB83ED90E30197F1F700C000008FE396
:100A300091E0C7DB81EE90E0BBDB8EE491E0C1DBAF
:100A40000F900F900F900F900F90C4E1D0E08DE3C6
:100A500099E40197F1F700C0000020DC2197B9F775
:100A6000DBDB30DC892B69F410C09FE52AEE80E0E7
:100A7000915020408040E1F700C000008BE591E0FC
:100A8000A0DB20DC892B89F74BDD28DC811133DCEE
:100A90008BB780648BBF8BB780688BBF01DCAADD0E
:100AA00016DE00DCC1E0D0E011E00EC090918501BF
:100AB00091FF07C090916000912790936000812F73
:100AC000DFDB98DD04DECD2F9091B50191110DDCB7
:100AD0000CDC8823E1F084E0C6DB00DC882311F025
:100AE0000ADC15C0EFDB892B71F411C09FE52AEEFB
:100AF00080E0915020408040E1F700C000008CDB96
:100B00008BE591E05EDBDEDB892B81F709DD9091DF
:100B1000850194FF05C0E9DB811102C084E0B0DBF0
:100B2000BDDB83ED90E30197F1F700C00000CF5FDC
:100B3000C53009F0C9CFBACF1F920F920FB60F92EE
:100B400011242F933F934F935F936F937F938F93D2
:100B50009F93AF93BF93EF93FF938091850184FDA3
:100B600014C080FD0CC08091B501882319F081303C
:100B700021F005C081E06FDB02C080E06CDB89EF13
:100B800090E00197F1F700C00000FF91EF91BF9155
:100B9000AF919F918F917F916F915F914F913F9115
:100BA0002F910F900FBE0F901F9018951F920F92CC
:100BB0000FB60F9211242F933F934F935F936F9330
:100BC0007F938F939F93AF93BF93EF93FF9381E0B6
:100BD0004ADBFF91EF91BF91AF919F918F917F91F0
:100BE0006F915F914F913F912F910F900FBE0F909A
:100BF0001F9018951F920F920FB60F9211242F93EA
:100C00003F934F935F936F937F938F939F93EF9354
:100C1000FF9324B185B19091B00191113CC090E057
:100C2000982F8827820F911D2091630030916400D6
:100C3000820F931F99230CF40196959587959093B5
:100C400064008093630020918601243110F010929B
:100C5000860140918601242F30E0F901EE0FFF1F3D
:100C6000E857FE4F60817181FC01B8976E177F07CE
:100C700028F0E05BFF4FE617F70718F451E05093B8
:100C80007A01220F331FF901E857FE4F91838083C9
:100C90004F5F40938601FF91EF919F918F917F91DC
:100CA0006F915F914F913F912F910F900FBE0F90D9
:100CB0001F9018955058BB27AA270ED04DC13ED182
:100CC00030F043D120F031F49F3F11F41EF433C1D2
:100CD0000EF4E095E7FB29C1E92F4FD180F3BA1755
:100CE000620773078407950718F071F49EF567C1D2
:100CF0000EF4E0950B2EBA2FA02D0B01B901900137
:100D00000C01CA01A0011124FF27591B99F0593F7A
:100D100050F4503E68F11A16F040A22F232F342FC2
:100D20004427585FF3CF469537952795A795F04010
:100D30005395C9F77EF41F16BA0B620B730B840B25
:100D4000BAF09150A1F0FF0FBB1F661F771F881FDD
:100D5000C2F70EC0BA0F621F731F841F48F4879535
:100D600077956795B795F7959E3F08F0B3CF939524
:100D7000880F08F09927EE0F9795879508950CD066
:100D8000EBC0E3D040F0DAD030F021F45F3F19F04F
:100D9000CCC0511115C1CFC0F0D098F39923C9F33D
:100DA0005523B1F3951B550BBB27AA276217730771
:100DB000840738F09F5F5F4F220F331F441FAA1F25
:100DC000A9F333D00E2E3AF0E0E830D091505040E5
:100DD000E695001CCAF729D0FE2F27D0660F771F93
:100DE000881FBB1F261737074807AB07B0E809F075
:100DF000BB0B802DBF01FF2793585F4F2AF09E3F0A
:100E0000510568F092C0DCC05F3FECF3983EDCF324
:100E1000869577956795B795F7959F5FC9F7880F82
:100E2000911D9695879597F90895E1E0660F771FD4
:100E3000881FBB1F621773078407BA0720F0621B65
:100E4000730B840BBA0BEE1F88F7E095089504D05E
:100E50006894B111B5C0089598D088F09F5790F06C
:100E6000B92F9927B751A0F0D1F0660F771F881FCF
:100E7000991F1AF0BA95C9F712C0B13081F09FD00E
:100E8000B1E008959CC0672F782F8827B85F39F0AC
:100E9000B93FCCF3869577956795B395D9F73EF42E
:100EA00090958095709561957F4F8F4F9F4F0895D6
:100EB000E89409C097FB3EF49095809570956195F4
:100EC0007F4F8F4F9F4F9923A9F0F92F96E9BB27AA
:100ED0009395F695879577956795B795F111F8CF26
:100EE000FAF4BB0F11F460FF1BC06F5F7F4F8F4F91
:100EF0009F4F16C0882311F096E911C0772321F087
:100F00009EE8872F762F05C0662371F096E8862F1E
:100F100070E060E02AF09A95660F771F881FDAF775
:100F2000880F9695879597F9089597F99F6780E8B8
:100F300070E060E008959FEF80EC089500240A942B
:100F40001616170618060906089500240A941216A4
:100F50001306140605060895092E0394000C11F4D7
:100F6000882352F0BB0F40F4BF2B11F460FF04C084
:100F70006F5F7F4F8F4F9F4F089557FD9058440FDD
:100F8000551F59F05F3F71F04795880F97FB991FE8
:100F900061F09F3F79F087950895121613061406A5
:100FA000551FF2CF4695F1DF08C016161706180632
:100FB000991FF1CF86957105610508940895E8940D
:100FC000BB2766277727CB0197F908950BD0C4CFAD
:100FD000B5DF28F0BADF18F0952309F0A6CFABCF24
:100FE0001124EECFCADFA0F3959FD1F3950F50E007
:100FF000551F629FF001729FBB27F00DB11D639FCB
:10100000AA27F00DB11DAA1F649F6627B00DA11D70
:10101000661F829F2227B00DA11D621F739FB00D16
:10102000A11D621F839FA00D611D221F749F332786
:10103000A00D611D231F849F600D211D822F762F1F
:101040006A2F11249F5750408AF0E1F088234AF01C
:10105000EE0FFF1FBB1F661F771F881F9150504068
:10106000A9F79E3F510570F060CFAACF5F3FECF328
:10107000983EDCF3869577956795B795F795E79554
:101080009F5FC1F7FE2B880F911D9695879597F965
:101090000895FA01EE0FFF1F30962105310599F1F1
:1010A0006115710561F48038BFE39B0749F16894CD
:1010B0009038810561F08038BFEF9B0741F099239C
:1010C00042F5FF3FE1053105210511F1E89408944F
:1010D000E795D901AA2329F4AB2FBE2FF85FD0F3EF
:1010E00010C0FF5F70F4A695E0F7F73950F019F0E3
:1010F000FF3A38F49F779F930CD00F9007FC9058DD
:1011000008953EF018CF60E070E080E89FE3089516
:101110004FE79F775F934F933F932F939ED02F91ED
:101120003F914F915F9152DF05C019F40EF0FDCE53
:1011300046CF01CF2ADFC8F39638C0F707F80F92E1
:10114000E8942BE33AEA48EB5FE74EDF0F920F9209
:101150000F924DB75EB70F92C0D0E4E5F0E016D025
:101160004F915F91EF91FF91E595EE1FFF1F49F0C1
:10117000FE57E0684427EE0F441FFA95E1F74195CA
:10118000550B32D00F9007FE26C00895DF93CF9302
:101190001F930F93FF92EF92DF927B018C01689473
:1011A00005C0DA2EEF011EDFFE01E894A59125911E
:1011B000359145915591AEF3EF018EDDFE0197011A
:1011C000A801DA9479F7DF90EF90FF900F911F91CB
:1011D000CF91DF9108959B01AC0160E070E080E861
:1011E0009FE3CDCDA2CEACC0D0DEE8F39923D9F3F6
:1011F000940F511DBBF39150504094F059F0882347
:1012000032F0660F771F881F91505040C1F79E3F04
:10121000510544F7880F911D9695879597F9089584
:101220005F3FACF0983E9CF0BB278695779567951D
:10123000B79508F4B1609395C1F7BB0F58F711F457
:1012400060FFE8CF6F5F7F4F8F4F9F4FE3CFB8CEE8
:101250000EF076C070CE689468CE97DEC8F39923FE
:10126000D1F3C6F3DF93CF931F930F93FF92C92F50
:10127000DD2788232AF02197660F771F881FDAF76A
:1012800020E030E040E85FEB9FE3883920F0803ECB
:1012900030F021968F770FDDECE7F0E003C00BDD37
:1012A000E9EAF0E073DF8B01BE01EC01FB2E6F5722
:1012B00071097595771F880B990BFCDD28E132E7E2
:1012C00041E35FE38FDEAF2D9801AE01FF900F91F8
:1012D0001F91CF91DF9100DD3FCEFA01DC01AA0F13
:1012E000BB1F9B01AC01BF5728F42227332744279B
:1012F00050781FC0B75188F4AB2F0024469537951E
:101300002795011CA395D2F3002069F0220F331F0B
:10131000441FB395DAF30DD0CDCC61307105A0E850
:101320008A07B94630F49B01AC01662777278827E6
:101330009078309621F0208331834283538308953F
:101340009F3F31F0915020F4879577956795B79539
:10135000880F911D9695879597F9089597FB072E0D
:1013600016F4009406D077FD08D02DD007FC05D0E8
:101370003EF4909581959F4F0895709561957F4FAC
:101380000895A1E21A2EAA1BBB1BFD010DC0AA1FC6
:10139000BB1FEE1FFF1FA217B307E407F50720F0DE
:1013A000A21BB30BE40BF50B661F771F881F991F59
:1013B0001A9469F760957095809590959B01AC01A2
:1013C000BD01CF010895AA1BBB1B51E107C0AA1F95
:1013D000BB1FA617B70710F0A61BB70B881F991FD6
:1013E0005A95A9F780959095BC01CD010895AEE07E
:1013F000B0E0ECEFF9E0CAC20D891E8986E08C836B
:101400001A8309838FEF9FE79E838D83AE01475E2A
:101410005F4F6F89788DCE01019609D02F81388575
:10142000F801E20FF31F10822E96E4E0CBC2ACE08D
:10143000B0E0ECE1FAE09CC27C016B018A01FC01A6
:1014400017821682838181FFB0C1CE0101964C01C3
:10145000F7019381F60193FD859193FF81916F01CF
:10146000882309F49EC1853239F493FD859193FF59
:1014700081916F01853221F4B70190E0B1D1E8CFBD
:10148000512C312C20E02032A0F48B3269F030F462
:10149000803259F0833269F420612CC08D3239F0EA
:1014A000803339F4216026C02260246023C0286084
:1014B00021C027FD27C030ED380F3A3078F426FFE1
:1014C00006C0FAE05F9E300D1124532E13C08AE04F
:1014D000389E300D1124332E20620CC08E3221F440
:1014E00026FD5FC1206406C08C3611F4206802C05E
:1014F000883641F4F60193FD859193FF81916F0148
:101500008111C1CF982F9F7D9554933028F40C5FA3
:101510001F4FFFE3F9830DC0833631F0833771F03D
:10152000833509F057C021C0F801808189830E5F9F
:101530001F4F44244394512C540114C03801F2E04D
:101540006F0E711CF801A080B18026FF03C0652DCD
:1015500070E002C06FEF7FEFC5012C8736D12C0100
:1015600083012C852F77222E16C03801F2E06F0EF2
:10157000711CF801A080B18026FF03C0652D70E0CA
:1015800002C06FEF7FEFC5012C8714D12C012C8591
:101590002068222E830123FC19C0832D90E0481679
:1015A0005906A0F4B70180E290E01AD13A94F5CF41
:1015B000F50127FC859127FE81915F01B70190E03D
:1015C0000FD131103A94F1E04F1A510841145104EF
:1015D00079F7DEC0843611F0893631F5F80127FF3E
:1015E00007C060817181828193810C5F1F4F08C0A9
:1015F00060817181072E000C880B990B0E5F1F4FC5
:101600002F76722E97FF09C0909580957095619501
:101610007F4F8F4F9F4F2068722E2AE030E0A40149
:1016200017D1A82EA81843C0853729F42F7EB22ED3
:101630002AE030E025C0F22FF97FBF2E8F36C1F0AF
:1016400018F4883579F0ADC0803719F0883721F06B
:10165000A8C02F2F2061B22EB4FE0DC08B2D846048
:10166000B82E09C024FF0AC09F2F9660B92E06C06D
:1016700028E030E005C020E130E002C020E132E0A7
:10168000F801B7FE07C060817181828193810C5F90
:101690001F4F06C06081718180E090E00E5F1F4F98
:1016A000A401D6D0A82EA818FB2DFF777F2E76FE9A
:1016B0000BC0372D3E7FA51450F474FE0AC072FC97
:1016C00008C0372D3E7E05C0BA2C372D03C0BA2C7A
:1016D00001C0B52C34FF0DC0FE01EA0DF11D808163
:1016E000803311F4397E09C032FF06C0B394B3943D
:1016F00004C0832F867809F0B39433FD12C030FF05
:1017000006C05A2CB31418F4530C5B18B32CB31442
:1017100060F4B70180E290E03C8762D0B3943C85EE
:10172000F6CFB31410F43B1801C0312C34FF11C0B4
:10173000B70180E390E03C8753D03C8532FF16C070
:1017400031FD03C088E790E002C088E590E0B70172
:101750000CC0832F867851F031FF02C08BE201C0AC
:1017600080E237FD8DE2B70190E03AD0A51430F465
:10177000B70180E390E034D05A94F8CFAA94F401F2
:10178000EA0DF11D8081B70190E02AD0A110F6CFBB
:10179000332009F45DCEB70180E290E021D03A9485
:1017A000F7CFF7018681978102C08FEF9FEF2C96CC
:1017B000E2E1FAC0FC010590615070400110D8F7D9
:1017C000809590958E0F9F1F0895FC016150704089
:1017D00001900110D8F7809590958E0F9F1F089566
:1017E0000F931F93CF93DF93FB01238121FD03C050
:1017F0008FEF9FEF28C022FF16C0468157812481BA
:1018000035814217530744F4A081B1819D012F5FB8
:101810003F4F318320838C93268137812F5F3F4F49
:101820003783268310C0EB01092F182F0084F18520
:10183000E02D0995892BE1F68E819F8101969F838A
:101840008E83812F902FDF91CF911F910F9108955B
:10185000FA01AA27283051F1203181F1E8946F93E1
:101860006E7F6E5F7F4F8F4F9F4FAF4FB1E03ED087
:10187000B4E03CD0670F781F891F9A1FA11D680F25
:10188000791F8A1F911DA11D6A0F711D811D911D58
:10189000A11D20D009F468943F912AE0269F1124CD
:1018A0003019305D3193DEF6CF010895462F477031
:1018B000405D4193B3E00FD0C9F7F6CF462F4F708C
:1018C000405D4A3318F0495D31FD4052419302D0EA
:1018D000A9F7EACFB4E0A695979587957795679590
:1018E000BA95C9F700976105710508959B01AC0190
:1018F0000A2E06945795479537952795BA95C9F7B7
:10190000620F731F841F951FA01D0895E199FECFDC
:101910009FBB8EBBE09A99278DB30895A6E1B0E0F6
:1019200044E050E017C0262FE199FECF9FBB8EBB4D
:101930002DBB0FB6F894E29AE19A0FBE0196089576
:10194000242FF2DF252FF0DF00C0EDDF272FECCFB3
:10195000DC01CB01FC01E199FECF06C0FFBBEEBB71
:10196000E09A31960DB20D9241505040B8F708956B
:101970002F923F924F925F926F927F928F929F929F
:10198000AF92BF92CF92DF92EF92FF920F931F938D
:10199000CF93DF93CDB7DEB7CA1BDB0B0FB6F8943E
:1019A000DEBF0FBECDBF09942A88398848885F847E
:1019B0006E847D848C849B84AA84B984C884DF80EF
:1019C000EE80FD800C811B81AA81B981CE0FD11DD3
:1019D0000FB6F894DEBF0FBECDBFED010895F894A9
:0219E000FFCF37
:1019E200010A000A0042656C6575636874756E676A
:1019F2003C65696E7374656C6C656E3A0055702F48
:101A0200446F776E2020204D46543D4F4B3C0025BD
:101A12006400250042656C6575636874756E673C89
:101A220065696E67657374656C6C7421002D302E68
:101A32003164426D20616E6C6567656E3C4D465443
:101A4200206472DC636B656E002D353064426D205C
:101A5200616E6C6567656E3C4D4654206472DC6352
:101A62006B656E004B616C696272696572756E6757
:101A72003C6572666F6C677265696368210020411C
:101A82004443204C6F67416D70003C6E696368741B
:101A920020F8003C726563686E652E2E2E004C6F36
:101AA20067416D70206F75743A3C002056004261A8
:101AB200747465726965207363687761636800484E
:101AC2002D46656C642D4D65737367657200743CB9
:101AD20020202020202056322E30004B616C69627B
:101AE20072696572756E673A3C5461737465206CF5
:0A1AF2006F736C617373656E210061
:00000001FF
